{
  "_format": "hh-sol-artifact-1",
  "contractName": "BananaScoreService",
  "sourceName": "contracts/BananaScoreService.sol",
  "abi": [
    {
      "inputs": [
        {
          "internalType": "address",
          "name": "_tokenAddress",
          "type": "address"
        }
      ],
      "stateMutability": "nonpayable",
      "type": "constructor"
    },
    {
      "anonymous": false,
      "inputs": [
        {
          "indexed": true,
          "internalType": "address",
          "name": "user",
          "type": "address"
        }
      ],
      "name": "NewUserCreated",
      "type": "event"
    },
    {
      "anonymous": false,
      "inputs": [
        {
          "indexed": true,
          "internalType": "address",
          "name": "user",
          "type": "address"
        },
        {
          "indexed": false,
          "internalType": "uint256",
          "name": "newScore",
          "type": "uint256"
        }
      ],
      "name": "ScoreIncremented",
      "type": "event"
    },
    {
      "inputs": [],
      "name": "collectibleTokenAddress",
      "outputs": [
        {
          "internalType": "address",
          "name": "",
          "type": "address"
        }
      ],
      "stateMutability": "view",
      "type": "function"
    },
    {
      "inputs": [],
      "name": "createUser",
      "outputs": [],
      "stateMutability": "nonpayable",
      "type": "function"
    },
    {
      "inputs": [
        {
          "internalType": "address",
          "name": "_userAddress",
          "type": "address"
        }
      ],
      "name": "getScoreForUser",
      "outputs": [
        {
          "internalType": "uint256",
          "name": "",
          "type": "uint256"
        }
      ],
      "stateMutability": "view",
      "type": "function"
    },
    {
      "inputs": [],
      "name": "getTotalScoreForAllUsers",
      "outputs": [
        {
          "internalType": "uint256",
          "name": "",
          "type": "uint256"
        }
      ],
      "stateMutability": "view",
      "type": "function"
    },
    {
      "inputs": [],
      "name": "incrementScore",
      "outputs": [],
      "stateMutability": "nonpayable",
      "type": "function"
    },
    {
      "inputs": [],
      "name": "listAllUsers",
      "outputs": [
        {
          "internalType": "address[]",
          "name": "",
          "type": "address[]"
        }
      ],
      "stateMutability": "view",
      "type": "function"
    },
    {
      "inputs": [
        {
          "internalType": "address",
          "name": "",
          "type": "address"
        }
      ],
      "name": "userScores",
      "outputs": [
        {
          "internalType": "bool",
          "name": "initialized",
          "type": "bool"
        },
        {
          "components": [
            {
              "internalType": "uint256",
              "name": "_value",
              "type": "uint256"
            }
          ],
          "internalType": "struct Counters.Counter",
          "name": "score",
          "type": "tuple"
        }
      ],
      "stateMutability": "view",
      "type": "function"
    },
    {
      "inputs": [
        {
          "internalType": "uint256",
          "name": "",
          "type": "uint256"
        }
      ],
      "name": "users",
      "outputs": [
        {
          "internalType": "address",
          "name": "",
          "type": "address"
        }
      ],
      "stateMutability": "view",
      "type": "function"
    }
  ],
  "bytecode": "0x608060405234801561001057600080fd5b5060405161067c38038061067c83398101604081905261002f91610054565b600080546001600160a01b0319166001600160a01b0392909216919091179055610084565b60006020828403121561006657600080fd5b81516001600160a01b038116811461007d57600080fd5b9392505050565b6105e9806100936000396000f3fe608060405234801561001057600080fd5b50600436106100885760003560e01c806327f8913f1161005b57806327f8913f14610116578063365b98b21461014157806341c3ca6d14610154578063a65db2a91461018157600080fd5b80630ccb770b1461008d5780630d7087e9146100a85780631413d4c0146100bd57806325ad91ce1461010c575b600080fd5b610095610189565b6040519081526020015b60405180910390f35b6100b0610201565b60405161009f91906104a5565b6100f66100cb3660046104f2565b6001602081815260009283526040928390208054845192830190945290910154815260ff9091169082565b604080519215158352905160208301520161009f565b610114610263565b005b600054610129906001600160a01b031681565b6040516001600160a01b03909116815260200161009f565b61012961014f366004610522565b61033f565b6100956101623660046104f2565b6001600160a01b03166000908152600160208190526040909120015490565b610114610369565b600080805b6002548110156101fb576101dd60016000600284815481106101b2576101b261053b565b60009182526020808320909101546001600160a01b0316835282019290925260400190206001015490565b6101e79083610567565b9150806101f38161057f565b91505061018e565b50919050565b6060600280548060200260200160405190810160405280929190818152602001828054801561025957602002820191906000526020600020905b81546001600160a01b0316815260019091019060200180831161023b575b5050505050905090565b3360009081526001602052604090205460ff16156102bd5760405162461bcd60e51b8152602060048201526012602482015271155cd95c88185b1c9958591e48195e1a5cdd60721b60448201526064015b60405180910390fd5b336000818152600160208190526040808320805460ff19168317905560028054928301815583527f405787fa12a823e0f2b7631cc41b3ba8828b3321ca811111fa75cd3aa3bb5ace90910180546001600160a01b03191684179055517fc5a5198774e054d1b60c78ab2a69ec1187fca9f638eb28c3f8ce440bdbd737ee9190a2565b6002818154811061034f57600080fd5b6000918252602090912001546001600160a01b0316905081565b3360009081526001602052604090205460ff166103be5760405162461bcd60e51b8152602060048201526013602482015272155cd95c88191bd95cc81b9bdd08195e1a5cdd606a1b60448201526064016102b4565b3360009081526001602081905260409091206103de910180546001019055565b6000546040516335313c2160e11b81523360048201526001600160a01b0390911690636a62784290602401602060405180830381600087803b15801561042357600080fd5b505af1158015610437573d6000803e3d6000fd5b505050506040513d601f19601f8201168201806040525081019061045b919061059a565b5033600081815260016020819052604090912001547f39ee565f82a59125e46aaf88b670808eb1d669190b52ff32715ce6e5763f41339060405190815260200160405180910390a2565b6020808252825182820181905260009190848201906040850190845b818110156104e65783516001600160a01b0316835292840192918401916001016104c1565b50909695505050505050565b60006020828403121561050457600080fd5b81356001600160a01b038116811461051b57600080fd5b9392505050565b60006020828403121561053457600080fd5b5035919050565b634e487b7160e01b600052603260045260246000fd5b634e487b7160e01b600052601160045260246000fd5b6000821982111561057a5761057a610551565b500190565b600060001982141561059357610593610551565b5060010190565b6000602082840312156105ac57600080fd5b505191905056fea264697066735822122044145392207691075ca1d1708ac4ff0330d742883a43b31bb0f08f11f087758f64736f6c63430008090033",
  "linkReferences": {},
  "deployedLinkReferences": {}
}