{
  "_format": "hh-sol-artifact-1",
  "contractName": "NFTBanana",
  "sourceName": "contracts/NFTBanana.sol",
  "abi": [
    {
      "inputs": [
        {
          "internalType": "string",
          "name": "_defaultTokenURI",
          "type": "string"
        }
      ],
      "stateMutability": "nonpayable",
      "type": "constructor"
    },
    {
      "anonymous": false,
      "inputs": [
        {
          "indexed": true,
          "internalType": "address",
          "name": "owner",
          "type": "address"
        },
        {
          "indexed": true,
          "internalType": "address",
          "name": "approved",
          "type": "address"
        },
        {
          "indexed": true,
          "internalType": "uint256",
          "name": "tokenId",
          "type": "uint256"
        }
      ],
      "name": "Approval",
      "type": "event"
    },
    {
      "anonymous": false,
      "inputs": [
        {
          "indexed": true,
          "internalType": "address",
          "name": "owner",
          "type": "address"
        },
        {
          "indexed": true,
          "internalType": "address",
          "name": "operator",
          "type": "address"
        },
        {
          "indexed": false,
          "internalType": "bool",
          "name": "approved",
          "type": "bool"
        }
      ],
      "name": "ApprovalForAll",
      "type": "event"
    },
    {
      "anonymous": false,
      "inputs": [
        {
          "indexed": false,
          "internalType": "uint256",
          "name": "_fromTokenId",
          "type": "uint256"
        },
        {
          "indexed": false,
          "internalType": "uint256",
          "name": "_toTokenId",
          "type": "uint256"
        }
      ],
      "name": "BatchMetadataUpdate",
      "type": "event"
    },
    {
      "anonymous": false,
      "inputs": [
        {
          "indexed": false,
          "internalType": "uint256",
          "name": "_tokenId",
          "type": "uint256"
        }
      ],
      "name": "MetadataUpdate",
      "type": "event"
    },
    {
      "anonymous": false,
      "inputs": [
        {
          "indexed": true,
          "internalType": "address",
          "name": "previousOwner",
          "type": "address"
        },
        {
          "indexed": true,
          "internalType": "address",
          "name": "newOwner",
          "type": "address"
        }
      ],
      "name": "OwnershipTransferred",
      "type": "event"
    },
    {
      "anonymous": false,
      "inputs": [
        {
          "indexed": true,
          "internalType": "address",
          "name": "from",
          "type": "address"
        },
        {
          "indexed": true,
          "internalType": "address",
          "name": "to",
          "type": "address"
        },
        {
          "indexed": true,
          "internalType": "uint256",
          "name": "tokenId",
          "type": "uint256"
        }
      ],
      "name": "Transfer",
      "type": "event"
    },
    {
      "inputs": [
        {
          "internalType": "address",
          "name": "to",
          "type": "address"
        },
        {
          "internalType": "uint256",
          "name": "tokenId",
          "type": "uint256"
        }
      ],
      "name": "approve",
      "outputs": [],
      "stateMutability": "nonpayable",
      "type": "function"
    },
    {
      "inputs": [
        {
          "internalType": "address",
          "name": "owner",
          "type": "address"
        }
      ],
      "name": "balanceOf",
      "outputs": [
        {
          "internalType": "uint256",
          "name": "",
          "type": "uint256"
        }
      ],
      "stateMutability": "view",
      "type": "function"
    },
    {
      "inputs": [],
      "name": "defaultTokenUri",
      "outputs": [
        {
          "internalType": "string",
          "name": "",
          "type": "string"
        }
      ],
      "stateMutability": "view",
      "type": "function"
    },
    {
      "inputs": [],
      "name": "getAllOwners",
      "outputs": [
        {
          "internalType": "address[]",
          "name": "",
          "type": "address[]"
        }
      ],
      "stateMutability": "view",
      "type": "function"
    },
    {
      "inputs": [
        {
          "internalType": "uint256",
          "name": "tokenId",
          "type": "uint256"
        }
      ],
      "name": "getApproved",
      "outputs": [
        {
          "internalType": "address",
          "name": "",
          "type": "address"
        }
      ],
      "stateMutability": "view",
      "type": "function"
    },
    {
      "inputs": [],
      "name": "getTotalMinted",
      "outputs": [
        {
          "internalType": "uint256",
          "name": "",
          "type": "uint256"
        }
      ],
      "stateMutability": "view",
      "type": "function"
    },
    {
      "inputs": [
        {
          "internalType": "address",
          "name": "owner",
          "type": "address"
        },
        {
          "internalType": "address",
          "name": "operator",
          "type": "address"
        }
      ],
      "name": "isApprovedForAll",
      "outputs": [
        {
          "internalType": "bool",
          "name": "",
          "type": "bool"
        }
      ],
      "stateMutability": "view",
      "type": "function"
    },
    {
      "inputs": [
        {
          "internalType": "address",
          "name": "receiver",
          "type": "address"
        }
      ],
      "name": "mint",
      "outputs": [
        {
          "internalType": "uint256",
          "name": "",
          "type": "uint256"
        }
      ],
      "stateMutability": "nonpayable",
      "type": "function"
    },
    {
      "inputs": [],
      "name": "name",
      "outputs": [
        {
          "internalType": "string",
          "name": "",
          "type": "string"
        }
      ],
      "stateMutability": "view",
      "type": "function"
    },
    {
      "inputs": [],
      "name": "owner",
      "outputs": [
        {
          "internalType": "address",
          "name": "",
          "type": "address"
        }
      ],
      "stateMutability": "view",
      "type": "function"
    },
    {
      "inputs": [
        {
          "internalType": "uint256",
          "name": "tokenId",
          "type": "uint256"
        }
      ],
      "name": "ownerOf",
      "outputs": [
        {
          "internalType": "address",
          "name": "",
          "type": "address"
        }
      ],
      "stateMutability": "view",
      "type": "function"
    },
    {
      "inputs": [],
      "name": "renounceOwnership",
      "outputs": [],
      "stateMutability": "nonpayable",
      "type": "function"
    },
    {
      "inputs": [
        {
          "internalType": "address",
          "name": "from",
          "type": "address"
        },
        {
          "internalType": "address",
          "name": "to",
          "type": "address"
        },
        {
          "internalType": "uint256",
          "name": "tokenId",
          "type": "uint256"
        }
      ],
      "name": "safeTransferFrom",
      "outputs": [],
      "stateMutability": "nonpayable",
      "type": "function"
    },
    {
      "inputs": [
        {
          "internalType": "address",
          "name": "from",
          "type": "address"
        },
        {
          "internalType": "address",
          "name": "to",
          "type": "address"
        },
        {
          "internalType": "uint256",
          "name": "tokenId",
          "type": "uint256"
        },
        {
          "internalType": "bytes",
          "name": "data",
          "type": "bytes"
        }
      ],
      "name": "safeTransferFrom",
      "outputs": [],
      "stateMutability": "nonpayable",
      "type": "function"
    },
    {
      "inputs": [
        {
          "internalType": "address",
          "name": "operator",
          "type": "address"
        },
        {
          "internalType": "bool",
          "name": "approved",
          "type": "bool"
        }
      ],
      "name": "setApprovalForAll",
      "outputs": [],
      "stateMutability": "nonpayable",
      "type": "function"
    },
    {
      "inputs": [
        {
          "internalType": "bytes4",
          "name": "interfaceId",
          "type": "bytes4"
        }
      ],
      "name": "supportsInterface",
      "outputs": [
        {
          "internalType": "bool",
          "name": "",
          "type": "bool"
        }
      ],
      "stateMutability": "view",
      "type": "function"
    },
    {
      "inputs": [],
      "name": "symbol",
      "outputs": [
        {
          "internalType": "string",
          "name": "",
          "type": "string"
        }
      ],
      "stateMutability": "view",
      "type": "function"
    },
    {
      "inputs": [
        {
          "internalType": "uint256",
          "name": "",
          "type": "uint256"
        }
      ],
      "name": "tokenOwners",
      "outputs": [
        {
          "internalType": "address",
          "name": "",
          "type": "address"
        }
      ],
      "stateMutability": "view",
      "type": "function"
    },
    {
      "inputs": [
        {
          "internalType": "uint256",
          "name": "tokenId",
          "type": "uint256"
        }
      ],
      "name": "tokenURI",
      "outputs": [
        {
          "internalType": "string",
          "name": "",
          "type": "string"
        }
      ],
      "stateMutability": "view",
      "type": "function"
    },
    {
      "inputs": [],
      "name": "totalMinted",
      "outputs": [
        {
          "internalType": "uint256",
          "name": "_value",
          "type": "uint256"
        }
      ],
      "stateMutability": "view",
      "type": "function"
    },
    {
      "inputs": [
        {
          "internalType": "address",
          "name": "from",
          "type": "address"
        },
        {
          "internalType": "address",
          "name": "to",
          "type": "address"
        },
        {
          "internalType": "uint256",
          "name": "tokenId",
          "type": "uint256"
        }
      ],
      "name": "transferFrom",
      "outputs": [],
      "stateMutability": "nonpayable",
      "type": "function"
    },
    {
      "inputs": [
        {
          "internalType": "address",
          "name": "newOwner",
          "type": "address"
        }
      ],
      "name": "transferOwnership",
      "outputs": [],
      "stateMutability": "nonpayable",
      "type": "function"
    }
  ],
  "bytecode": "0x60806040523480156200001157600080fd5b5060405162001d0b38038062001d0b8339810160408190526200003491620001e3565b604080518082018252600981526810985b985b9853919560ba1b6020808301918252835180850190945260048452631093919560e21b908401528151919291620000819160009162000127565b5080516200009790600190602084019062000127565b505050620000b4620000ae620000d160201b60201c565b620000d5565b8051620000c990600a90602084019062000127565b5050620002fc565b3390565b600780546001600160a01b038381166001600160a01b0319831681179093556040519116919082907f8be0079c531659141344cd1fd0a4f28419497f9722a3daafe3b4186f6b6457e090600090a35050565b8280546200013590620002bf565b90600052602060002090601f016020900481019282620001595760008555620001a4565b82601f106200017457805160ff1916838001178555620001a4565b82800160010185558215620001a4579182015b82811115620001a457825182559160200191906001019062000187565b50620001b2929150620001b6565b5090565b5b80821115620001b25760008155600101620001b7565b634e487b7160e01b600052604160045260246000fd5b60006020808385031215620001f757600080fd5b82516001600160401b03808211156200020f57600080fd5b818501915085601f8301126200022457600080fd5b815181811115620002395762000239620001cd565b604051601f8201601f19908116603f01168101908382118183101715620002645762000264620001cd565b8160405282815288868487010111156200027d57600080fd5b600093505b82841015620002a1578484018601518185018701529285019262000282565b82841115620002b35760008684830101525b98975050505050505050565b600181811c90821680620002d457607f821691505b60208210811415620002f657634e487b7160e01b600052602260045260246000fd5b50919050565b6119ff806200030c6000396000f3fe608060405234801561001057600080fd5b50600436106101425760003560e01c8063715018a6116100b8578063b88d4fde1161007c578063b88d4fde1461028c578063c87b56dd1461029f578063dd5ffa1e146102b2578063e985e9c5146102ba578063f2fde38b146102f6578063f8a14f461461030957600080fd5b8063715018a61461024e5780638da5cb5b1461025657806395d89b4114610267578063a22cb4651461026f578063a2309ff81461028257600080fd5b806316c127461161010a57806316c12746146101da57806323b872dd146101ef57806342842e0e146102025780636352211e146102155780636a6278421461022857806370a082311461023b57600080fd5b806301ffc9a71461014757806306fdde031461016f578063081812fc14610184578063095ea7b3146101af5780630ca1c5c9146101c4575b600080fd5b61015a61015536600461153a565b61031c565b60405190151581526020015b60405180910390f35b610177610347565b60405161016691906115af565b6101976101923660046115c2565b6103d9565b6040516001600160a01b039091168152602001610166565b6101c26101bd3660046115f2565b610400565b005b6101cc61051b565b604051908152602001610166565b6101e261052b565b604051610166919061161c565b6101c26101fd366004611669565b61058c565b6101c2610210366004611669565b6105bd565b6101976102233660046115c2565b6105d8565b6101cc6102363660046116a5565b610638565b6101cc6102493660046116a5565b610759565b6101c26107df565b6007546001600160a01b0316610197565b6101776107f3565b6101c261027d3660046116c0565b610802565b6008546101cc9081565b6101c261029a366004611712565b610811565b6101776102ad3660046115c2565b610849565b61017761095a565b61015a6102c83660046117ee565b6001600160a01b03918216600090815260056020908152604080832093909416825291909152205460ff1690565b6101c26103043660046116a5565b6109e8565b6101976103173660046115c2565b610a61565b60006001600160e01b03198216632483248360e11b1480610341575061034182610a8b565b92915050565b60606000805461035690611821565b80601f016020809104026020016040519081016040528092919081815260200182805461038290611821565b80156103cf5780601f106103a4576101008083540402835291602001916103cf565b820191906000526020600020905b8154815290600101906020018083116103b257829003601f168201915b5050505050905090565b60006103e482610adb565b506000908152600460205260409020546001600160a01b031690565b600061040b826105d8565b9050806001600160a01b0316836001600160a01b0316141561047e5760405162461bcd60e51b815260206004820152602160248201527f4552433732313a20617070726f76616c20746f2063757272656e74206f776e656044820152603960f91b60648201526084015b60405180910390fd5b336001600160a01b038216148061049a575061049a81336102c8565b61050c5760405162461bcd60e51b815260206004820152603d60248201527f4552433732313a20617070726f76652063616c6c6572206973206e6f7420746f60448201527f6b656e206f776e6572206f7220617070726f76656420666f7220616c6c0000006064820152608401610475565b6105168383610b3a565b505050565b600061052660085490565b905090565b606060098054806020026020016040519081016040528092919081815260200182805480156103cf57602002820191906000526020600020905b81546001600160a01b03168152600190910190602001808311610565575050505050905090565b6105963382610ba8565b6105b25760405162461bcd60e51b81526004016104759061185c565b610516838383610c26565b61051683838360405180602001604052806000815250610811565b6000818152600260205260408120546001600160a01b0316806103415760405162461bcd60e51b8152602060048201526018602482015277115490cdcc8c4e881a5b9d985b1a59081d1bdad95b88125160421b6044820152606401610475565b6000610642610d8a565b61064b82610759565b61069b57600980546001810182556000919091527f6e1540171b6c0c960b71a7020d9f60077f6af931a8bbf590da0223dacf75c7af0180546001600160a01b0319166001600160a01b0384161790555b60006106a660085490565b90506106b28382610de4565b61074681600a80546106c390611821565b80601f01602080910402602001604051908101604052809291908181526020018280546106ef90611821565b801561073c5780601f106107115761010080835404028352916020019161073c565b820191906000526020600020905b81548152906001019060200180831161071f57829003601f168201915b5050505050610f6f565b610341600880546001019055565b919050565b60006001600160a01b0382166107c35760405162461bcd60e51b815260206004820152602960248201527f4552433732313a2061646472657373207a65726f206973206e6f7420612076616044820152683634b21037bbb732b960b91b6064820152608401610475565b506001600160a01b031660009081526003602052604090205490565b6107e7610d8a565b6107f16000611041565b565b60606001805461035690611821565b61080d338383611093565b5050565b61081b3383610ba8565b6108375760405162461bcd60e51b81526004016104759061185c565b61084384848484611162565b50505050565b606061085482610adb565b6000828152600660205260408120805461086d90611821565b80601f016020809104026020016040519081016040528092919081815260200182805461089990611821565b80156108e65780601f106108bb576101008083540402835291602001916108e6565b820191906000526020600020905b8154815290600101906020018083116108c957829003601f168201915b50505050509050600061090460408051602081019091526000815290565b9050805160001415610917575092915050565b8151156109495780826040516020016109319291906118a9565b60405160208183030381529060405292505050919050565b61095284611195565b949350505050565b600a805461096790611821565b80601f016020809104026020016040519081016040528092919081815260200182805461099390611821565b80156109e05780601f106109b5576101008083540402835291602001916109e0565b820191906000526020600020905b8154815290600101906020018083116109c357829003601f168201915b505050505081565b6109f0610d8a565b6001600160a01b038116610a555760405162461bcd60e51b815260206004820152602660248201527f4f776e61626c653a206e6577206f776e657220697320746865207a65726f206160448201526564647265737360d01b6064820152608401610475565b610a5e81611041565b50565b60098181548110610a7157600080fd5b6000918252602090912001546001600160a01b0316905081565b60006001600160e01b031982166380ac58cd60e01b1480610abc57506001600160e01b03198216635b5e139f60e01b145b8061034157506301ffc9a760e01b6001600160e01b0319831614610341565b6000818152600260205260409020546001600160a01b0316610a5e5760405162461bcd60e51b8152602060048201526018602482015277115490cdcc8c4e881a5b9d985b1a59081d1bdad95b88125160421b6044820152606401610475565b600081815260046020526040902080546001600160a01b0319166001600160a01b0384169081179091558190610b6f826105d8565b6001600160a01b03167f8c5be1e5ebec7d5bd14f71427d1e84f3dd0314c0f7b2291e5b200ac8c7c3b92560405160405180910390a45050565b600080610bb4836105d8565b9050806001600160a01b0316846001600160a01b03161480610bfb57506001600160a01b0380821660009081526005602090815260408083209388168352929052205460ff165b806109525750836001600160a01b0316610c14846103d9565b6001600160a01b031614949350505050565b826001600160a01b0316610c39826105d8565b6001600160a01b031614610c5f5760405162461bcd60e51b8152600401610475906118d8565b6001600160a01b038216610cc15760405162461bcd60e51b8152602060048201526024808201527f4552433732313a207472616e7366657220746f20746865207a65726f206164646044820152637265737360e01b6064820152608401610475565b826001600160a01b0316610cd4826105d8565b6001600160a01b031614610cfa5760405162461bcd60e51b8152600401610475906118d8565b600081815260046020908152604080832080546001600160a01b03199081169091556001600160a01b0387811680865260038552838620805460001901905590871680865283862080546001019055868652600290945282852080549092168417909155905184937fddf252ad1be2c89b69c2b068fc378daa952ba7f163c4a11628f55a4df523b3ef91a4505050565b6007546001600160a01b031633146107f15760405162461bcd60e51b815260206004820181905260248201527f4f776e61626c653a2063616c6c6572206973206e6f7420746865206f776e65726044820152606401610475565b6001600160a01b038216610e3a5760405162461bcd60e51b815260206004820181905260248201527f4552433732313a206d696e7420746f20746865207a65726f20616464726573736044820152606401610475565b6000818152600260205260409020546001600160a01b031615610e9f5760405162461bcd60e51b815260206004820152601c60248201527f4552433732313a20746f6b656e20616c7265616479206d696e746564000000006044820152606401610475565b6000818152600260205260409020546001600160a01b031615610f045760405162461bcd60e51b815260206004820152601c60248201527f4552433732313a20746f6b656e20616c7265616479206d696e746564000000006044820152606401610475565b6001600160a01b038216600081815260036020908152604080832080546001019055848352600290915280822080546001600160a01b0319168417905551839291907fddf252ad1be2c89b69c2b068fc378daa952ba7f163c4a11628f55a4df523b3ef908290a45050565b6000828152600260205260409020546001600160a01b0316610fea5760405162461bcd60e51b815260206004820152602e60248201527f45524337323155524953746f726167653a2055524920736574206f66206e6f6e60448201526d32bc34b9ba32b73a103a37b5b2b760911b6064820152608401610475565b600082815260066020908152604090912082516110099284019061148b565b506040518281527ff8e1a15aba9398e019f0b49df1a4fde98ee17ae345cb5f6b5e2c27f5033e8ce79060200160405180910390a15050565b600780546001600160a01b038381166001600160a01b0319831681179093556040519116919082907f8be0079c531659141344cd1fd0a4f28419497f9722a3daafe3b4186f6b6457e090600090a35050565b816001600160a01b0316836001600160a01b031614156110f55760405162461bcd60e51b815260206004820152601960248201527f4552433732313a20617070726f766520746f2063616c6c6572000000000000006044820152606401610475565b6001600160a01b03838116600081815260056020908152604080832094871680845294825291829020805460ff191686151590811790915591519182527f17307eab39ab6107e8899845ad3d59bd9653f200f220920489ca2b5937696c31910160405180910390a3505050565b61116d848484610c26565b61117984848484611209565b6108435760405162461bcd60e51b81526004016104759061191d565b60606111a082610adb565b60006111b760408051602081019091526000815290565b905060008151116111d75760405180602001604052806000815250611202565b806111e184611316565b6040516020016111f29291906118a9565b6040516020818303038152906040525b9392505050565b60006001600160a01b0384163b1561130b57604051630a85bd0160e11b81526001600160a01b0385169063150b7a029061124d90339089908890889060040161196f565b602060405180830381600087803b15801561126757600080fd5b505af1925050508015611297575060408051601f3d908101601f19168201909252611294918101906119ac565b60015b6112f1573d8080156112c5576040519150601f19603f3d011682016040523d82523d6000602084013e6112ca565b606091505b5080516112e95760405162461bcd60e51b81526004016104759061191d565b805181602001fd5b6001600160e01b031916630a85bd0160e11b149050610952565b506001949350505050565b60606000611323836113b3565b600101905060008167ffffffffffffffff811115611343576113436116fc565b6040519080825280601f01601f19166020018201604052801561136d576020820181803683370190505b5090508181016020015b600019016f181899199a1a9b1b9c1cb0b131b232b360811b600a86061a8153600a85049450846113a6576113ab565b611377565b509392505050565b60008072184f03e93ff9f4daa797ed6e38ed64bf6a1f0160401b83106113f25772184f03e93ff9f4daa797ed6e38ed64bf6a1f0160401b830492506040015b6d04ee2d6d415b85acef8100000000831061141e576d04ee2d6d415b85acef8100000000830492506020015b662386f26fc10000831061143c57662386f26fc10000830492506010015b6305f5e1008310611454576305f5e100830492506008015b612710831061146857612710830492506004015b6064831061147a576064830492506002015b600a83106103415760010192915050565b82805461149790611821565b90600052602060002090601f0160209004810192826114b957600085556114ff565b82601f106114d257805160ff19168380011785556114ff565b828001600101855582156114ff579182015b828111156114ff5782518255916020019190600101906114e4565b5061150b92915061150f565b5090565b5b8082111561150b5760008155600101611510565b6001600160e01b031981168114610a5e57600080fd5b60006020828403121561154c57600080fd5b813561120281611524565b60005b8381101561157257818101518382015260200161155a565b838111156108435750506000910152565b6000815180845261159b816020860160208601611557565b601f01601f19169290920160200192915050565b6020815260006112026020830184611583565b6000602082840312156115d457600080fd5b5035919050565b80356001600160a01b038116811461075457600080fd5b6000806040838503121561160557600080fd5b61160e836115db565b946020939093013593505050565b6020808252825182820181905260009190848201906040850190845b8181101561165d5783516001600160a01b031683529284019291840191600101611638565b50909695505050505050565b60008060006060848603121561167e57600080fd5b611687846115db565b9250611695602085016115db565b9150604084013590509250925092565b6000602082840312156116b757600080fd5b611202826115db565b600080604083850312156116d357600080fd5b6116dc836115db565b9150602083013580151581146116f157600080fd5b809150509250929050565b634e487b7160e01b600052604160045260246000fd5b6000806000806080858703121561172857600080fd5b611731856115db565b935061173f602086016115db565b925060408501359150606085013567ffffffffffffffff8082111561176357600080fd5b818701915087601f83011261177757600080fd5b813581811115611789576117896116fc565b604051601f8201601f19908116603f011681019083821181831017156117b1576117b16116fc565b816040528281528a60208487010111156117ca57600080fd5b82602086016020830137600060208483010152809550505050505092959194509250565b6000806040838503121561180157600080fd5b61180a836115db565b9150611818602084016115db565b90509250929050565b600181811c9082168061183557607f821691505b6020821081141561185657634e487b7160e01b600052602260045260246000fd5b50919050565b6020808252602d908201527f4552433732313a2063616c6c6572206973206e6f7420746f6b656e206f776e6560408201526c1c881bdc88185c1c1c9bdd9959609a1b606082015260800190565b600083516118bb818460208801611557565b8351908301906118cf818360208801611557565b01949350505050565b60208082526025908201527f4552433732313a207472616e736665722066726f6d20696e636f72726563742060408201526437bbb732b960d91b606082015260800190565b60208082526032908201527f4552433732313a207472616e7366657220746f206e6f6e20455243373231526560408201527131b2b4bb32b91034b6b83632b6b2b73a32b960711b606082015260800190565b6001600160a01b03858116825284166020820152604081018390526080606082018190526000906119a290830184611583565b9695505050505050565b6000602082840312156119be57600080fd5b81516112028161152456fea2646970667358221220c8b5a7b735f0855bb9f03c5cf89e3c5036d7d953372af479c6fbd1bfffc7b77f64736f6c63430008090033",
  "linkReferences": {},
  "deployedLinkReferences": {}
}